:100000004AC089C363C01AC161C060C05FC05EC01E
:100010005DC05CC05BC05AC059C058C057C056C014
:1000200055C054C053C0040309042C0377006F006B
:1000300072006B00620065006E00630068002E00B5
:1000400066007200650065007400630070002E0099
:1000500063006F006D001C037500730062005300A5
:1000600069006D0053007400650070007000650049
:10007000720012011001FF000008C016DC0500012B
:100080000102030109021200010100800A090400B3
:1000900000000000000011241FBECFE5D4E0DEBF49
:1000A000CDBF10E0A0E6B0E0EEE9F9E002C00590B7
:1000B0000D92AC36B107D9F710E0ACE6B0E001C064
:1000C0001D92AF3AB107E1F7C5D167C499CFEF925E
:1000D000FF920F931F93CF93DF93E82EE7017E01EA
:1000E000F92EE7015CE7E52E50E0F52EF092940042
:1000F000E09293008981882341F48A8180937C0077
:100100008B8180937D0082E07BC0813059F43B81FC
:1001100020E08A8190E0822B932B9093790080934A
:1001200078006DC08A30B1F400E010E08A8190E080
:10013000019643E0880F991F4A95E1F7800F911FC0
:1001400017D4F70181937F010F5F1F4F083011050E
:1001500069F71DC08B3021F48A8190E001961EC0A2
:100160008431B9F400E010E08A8190E0099633E030
:10017000880F991F3A95E1F7800F911FF9D3F70186
:1001800081937F010F5F1F4F0830110569F788E0E9
:1001900037C0853171F48A8190E0099623E0880F99
:1001A000991F2A95E1F72B81820F911D6C81E8D36D
:1001B00026C08A35B9F46A8170E0605D7F4F709324
:1001C0006F0060936E0080E090E0DAD38A818093C4
:1001D0007C008B8180937D0080916E0080937E00F7
:1001E00083E00EC0833659F41092790010927800A3
:1001F000109273001092720082E08093600080E0A1
:10020000DF91CF911F910F91FF90EF900895FC0126
:1002100010929400109293008381833059F482816C
:10022000833051F48CE690E0909394008093930097
:1002300084E0089580E0089580E008951F920F9271
:100240000FB60F9211242F933F938F939F93EF93A9
:10025000FF93819903C080E090E002C083E090E0CA
:10026000809B04C021E030E082279327209170001A
:1002700030917100281B390B20FF11C09093710041
:1002800080937000809172009091730001972270AA
:100290003070820F931F909373008093720080914F
:1002A000600018160CF05BC0833011F5809174006B
:1002B0009091750021E08F389207BCF401969093DD
:1002C000750080937400809176009091770001967C
:1002D0008770907090937700809376008F599F4F2E
:1002E000FC0180818F7085BB03C084E08093600037
:1002F000809160008230E9F486B326B390E030E06C
:100300008223932383FF12C080917600909177001F
:1003100001968770907090937700809376008F5944
:100320009F4FFC0180818F7085BB03C081E080936B
:10033000600080916000813009F081C086B326B3EF
:1003400090E030E08223932383FF03C0109260008B
:1003500076C08091760090917700019764C080917B
:10036000780090917900F1E080399F0734F08FE8B0
:1003700091E090937900809378008091780090913B
:10038000790097FF04C010927900109278002091B4
:100390007200309173008091780090917900821BF7
:1003A000930B90937B0080937A00009709F447C0E9
:1003B00097FF04C081E08093690002C01092690039
:1003C00080916900813091F4215030403093730066
:1003D0002093720037FF04C01092730010927200D5
:1003E0008091760090917700019715C02F5F3F4F65
:1003F000309373002093720081E02039380734F085
:100400008FE891E090937300809372008091760062
:100410009091770001969093770080937600809179
:10042000760090917700877090709093770080931A
:1004300076008F599F4FFC0180818F7085BBFF91A3
:10044000EF919F918F913F912F910F900FBE0F9041
:100450001F90189584E093E090936D0080936C005A
:1004600080E090E085D28F3F09F480E380936E00B6
:1004700010926F002EE088E190E00FB6F894A895F6
:1004800081BD0FBE21BD8BEF81BB12BA18BA8CEFB4
:1004900087BBBA98C29880E007C0A895EFE6F7E15D
:1004A0003197F1F700C000008150B9F7BA9AC29AAB
:1004B00085E083BF10D1BB98C39A81B38C7F81BB89
:1004C00082B3836082BB14BC8FE085BD8BE083BDAB
:1004D00089B7806889BF8FE284BB85BB7894A89573
:1004E00001D0FDCF1F93CF93DF9380919500835070
:1004F00087FD93C090919200209191002D3209F0D8
:100500008AC0883009F087C0CCE0D0E0C91BD1098F
:10051000C756DF4F83EC809385008AE580936A009D
:10052000109284008881807619F0CE01D0DD6AC0F7
:100530009A8110928E008981882331F410928F0065
:100540002EE830E082E05AC0853019F4909396008E
:100550004BC0863009F03FC08B81813019F482E7AF
:1005600090E004C0823049F484E890E090939400D5
:100570008093930090E482E12BC0833039F5992376
:1005800049F486E290E0909394008093930090E485
:1005900084E01EC0913049F48AE290E09093940088
:1005A0008093930090E48CE213C0923049F486E586
:1005B00090E0909394008093930090E48CE108C0C5
:1005C000933021F4CE0123DE90E002C090E480E07D
:1005D0009093840017C0883059F0893019F49093B3
:1005E000980002C08A3039F02EE830E080E006C082
:1005F00028E930E002C02EE830E081E0309394003A
:10060000209393009F81992321F49E81981708F4E9
:10061000892F80936B001092950080916A0084FF6F
:100620004CC080916B008F3F09F447C0182F893070
:1006300008F018E0811B80936B008091850098E89A
:10064000892780938500112361F180919300909117
:10065000940030918400212F215036FF0EC030E0ED
:10066000A90149575F4FFC01A6E8B0E064916D9382
:100670003196A417B507D1F70CC0DC0130E0A90111
:1006800049575F4FE6E8F0E06D916193E417F50795
:10069000D9F72F5F3F4F280F391F309394002093D5
:1006A000930086E890E0612F32D01C5F1C3019F077
:1006B0008FEF80936B0010936A0084E196B3937080
:1006C00031F48150D9F71092960010929000DF918A
:1006D000CF911F91089585B7826085BF8BB78064E5
:1006E0008BBF0895A82FB92F80E090E041E050EA39
:1006F00060956F5F58F42D9138EF82279795879515
:1007000010F0842795273F5FC8F3F3CF0895EADF01
:100710008D939D930895CF93CFB7CF93C395B09BFF
:10072000E9F7B09B09C0B09B07C0B09B05C0B09B68
:1007300003C0B09B01C0A1C0DF93C0919200DD2730
:10074000C756DF4FB09B02C0DF91EBCF2F930F93C3
:100750001F9306B32FEF00FB20F94F933F9316B37F
:100760004FEF012700FB21F93BE031C04E7F012F05
:1007700016B3216028C0102F4D7F2260000006B301
:1007800029C04B7F2460012F000016B32BC016B385
:10079000477F28602AC04F7E06B320612CC04F7D62
:1007A00016B320622FC04F7B06B3206432C04227AD
:1007B00006B349934FEF0000102710FB20F916B342
:1007C0001370C9F1297F91F2012700FB21F906B3CB
:1007D000237F89F2315058F1102710FB22F916B30C
:1007E000277E79F2012700FB23F92F7C81F206B3E3
:1007F000102710FB24F92F7971F200C016B30127DE
:1008000000FB25F92F7359F200C006B3102710FB27
:1008100026F9223040F200C016B3012700FB27F969
:10082000243028F64F77206816B30000F9CF10E483
:100830001ABF002717C03B503195C31BD04010E4AE
:100840001ABF0881033CE9F00B34D9F020919000E5
:100850001981110F1213EDCF093641F10D3211F04C
:10086000013E39F7009397003F914F911F910F91EF
:100870002F91DF91CAB7C6FD51CFCF91CFBFCF9196
:10088000189520919700222379F310919500112358
:1008900011F5343012F130939500209391001091AE
:1008A00092003BE0311B3093920017C000919500FD
:1008B00001308CF40AE530916A0034FD10C00093D9
:1008C0006A00C5E8D0E00FC02795A8F45150A9F4FC
:1008D000220F0000F9CF4AE503C042ED01C0432FCB
:1008E000C4E1D0E032E017B31360C09A17BB08B37D
:1008F00020E413E05F93012756E008BB279520F41E
:10090000515021F4220FF9CF012756E000003B5A45
:1009100008BBD0F2279528F4515029F4220F00008B
:10092000F9CF012756E0279508BB20F4515021F458
:10093000220FF9CF012756E02991332308BB21F676
:100940000C7F10919600110FC651D04008BB11F0DA
:100950001093900010E41ABF016017B31C7F402F62
:100960004C7F5F9100C000C008BB17BB48BB7CCF69
:10097000E199FECF9FBB8EBBE09A99278DB3089576
:10098000262FE199FECF9FBB8EBB2DBB0FB6F894EF
:0E099000E29AE19A0FBE01960895F894FFCF07
:0C099E00020901050406020A08015AFFC4
:00000001FF
